{
  "contractName": "LandRegistration",
  "abi": [
    {
      "inputs": [],
      "payable": false,
      "stateMutability": "nonpayable",
      "type": "constructor"
    },
    {
      "constant": true,
      "inputs": [],
      "name": "demo",
      "outputs": [
        {
          "internalType": "string",
          "name": "",
          "type": "string"
        }
      ],
      "payable": false,
      "stateMutability": "view",
      "type": "function"
    },
    {
      "constant": true,
      "inputs": [],
      "name": "helloWorld",
      "outputs": [
        {
          "internalType": "string",
          "name": "",
          "type": "string"
        }
      ],
      "payable": false,
      "stateMutability": "view",
      "type": "function"
    },
    {
      "constant": false,
      "inputs": [
        {
          "internalType": "string",
          "name": "_demo",
          "type": "string"
        }
      ],
      "name": "setHelloWorld",
      "outputs": [],
      "payable": false,
      "stateMutability": "nonpayable",
      "type": "function"
    },
    {
      "constant": false,
      "inputs": [
        {
          "internalType": "address",
          "name": "_superAdmin",
          "type": "address"
        },
        {
          "internalType": "string",
          "name": "_village",
          "type": "string"
        }
      ],
      "name": "addSuperAdmin",
      "outputs": [],
      "payable": false,
      "stateMutability": "nonpayable",
      "type": "function"
    },
    {
      "constant": false,
      "inputs": [
        {
          "internalType": "string",
          "name": "_state",
          "type": "string"
        },
        {
          "internalType": "string",
          "name": "_district",
          "type": "string"
        },
        {
          "internalType": "string",
          "name": "_village",
          "type": "string"
        },
        {
          "internalType": "uint256",
          "name": "_surveyNumber",
          "type": "uint256"
        },
        {
          "internalType": "address payable",
          "name": "_OwnerAddress",
          "type": "address"
        },
        {
          "internalType": "uint256",
          "name": "_marketValue",
          "type": "uint256"
        }
      ],
      "name": "Registration",
      "outputs": [
        {
          "internalType": "bool",
          "name": "",
          "type": "bool"
        }
      ],
      "payable": false,
      "stateMutability": "nonpayable",
      "type": "function"
    },
    {
      "constant": true,
      "inputs": [
        {
          "internalType": "uint256",
          "name": "id",
          "type": "uint256"
        }
      ],
      "name": "landInfoOwner",
      "outputs": [
        {
          "internalType": "string",
          "name": "",
          "type": "string"
        },
        {
          "internalType": "string",
          "name": "",
          "type": "string"
        },
        {
          "internalType": "string",
          "name": "",
          "type": "string"
        },
        {
          "internalType": "uint256",
          "name": "",
          "type": "uint256"
        },
        {
          "internalType": "bool",
          "name": "",
          "type": "bool"
        },
        {
          "internalType": "address",
          "name": "",
          "type": "address"
        },
        {
          "internalType": "enum LandRegistration.reqStatus",
          "name": "",
          "type": "uint8"
        }
      ],
      "payable": false,
      "stateMutability": "view",
      "type": "function"
    },
    {
      "constant": true,
      "inputs": [
        {
          "internalType": "uint256",
          "name": "id",
          "type": "uint256"
        }
      ],
      "name": "landInfoUser",
      "outputs": [
        {
          "internalType": "address",
          "name": "",
          "type": "address"
        },
        {
          "internalType": "uint256",
          "name": "",
          "type": "uint256"
        },
        {
          "internalType": "bool",
          "name": "",
          "type": "bool"
        },
        {
          "internalType": "address",
          "name": "",
          "type": "address"
        },
        {
          "internalType": "enum LandRegistration.reqStatus",
          "name": "",
          "type": "uint8"
        }
      ],
      "payable": false,
      "stateMutability": "view",
      "type": "function"
    },
    {
      "constant": false,
      "inputs": [
        {
          "internalType": "uint256",
          "name": "property",
          "type": "uint256"
        }
      ],
      "name": "makeAvailable",
      "outputs": [],
      "payable": false,
      "stateMutability": "nonpayable",
      "type": "function"
    },
    {
      "constant": false,
      "inputs": [
        {
          "internalType": "uint256",
          "name": "id",
          "type": "uint256"
        }
      ],
      "name": "requstToLandOwner",
      "outputs": [],
      "payable": false,
      "stateMutability": "nonpayable",
      "type": "function"
    },
    {
      "constant": true,
      "inputs": [],
      "name": "viewAssets",
      "outputs": [
        {
          "internalType": "uint256[]",
          "name": "",
          "type": "uint256[]"
        }
      ],
      "payable": false,
      "stateMutability": "view",
      "type": "function"
    },
    {
      "constant": true,
      "inputs": [
        {
          "internalType": "uint256",
          "name": "property",
          "type": "uint256"
        }
      ],
      "name": "viewRequest",
      "outputs": [
        {
          "internalType": "address",
          "name": "",
          "type": "address"
        }
      ],
      "payable": false,
      "stateMutability": "view",
      "type": "function"
    },
    {
      "constant": false,
      "inputs": [
        {
          "internalType": "uint256",
          "name": "property",
          "type": "uint256"
        },
        {
          "internalType": "enum LandRegistration.reqStatus",
          "name": "status",
          "type": "uint8"
        }
      ],
      "name": "processRequest",
      "outputs": [],
      "payable": false,
      "stateMutability": "nonpayable",
      "type": "function"
    },
    {
      "constant": false,
      "inputs": [
        {
          "internalType": "uint256",
          "name": "property",
          "type": "uint256"
        }
      ],
      "name": "buyProperty",
      "outputs": [],
      "payable": true,
      "stateMutability": "payable",
      "type": "function"
    },
    {
      "constant": true,
      "inputs": [
        {
          "internalType": "uint256",
          "name": "id",
          "type": "uint256"
        },
        {
          "internalType": "address",
          "name": "user",
          "type": "address"
        }
      ],
      "name": "findId",
      "outputs": [
        {
          "internalType": "uint256",
          "name": "",
          "type": "uint256"
        }
      ],
      "payable": false,
      "stateMutability": "view",
      "type": "function"
    }
  ],
  "bytecode": "0x60806040526040518060400160405280600c81526020017f68656c6c6f20776f726c642100000000000000000000000000000000000000008152506000908051906020019062000051929190620000a7565b503480156200005f57600080fd5b5033600260006101000a81548173ffffffffffffffffffffffffffffffffffffffff021916908373ffffffffffffffffffffffffffffffffffffffff16021790555062000156565b828054600181600116156101000203166002900490600052602060002090601f016020900481019282601f10620000ea57805160ff19168380011785556200011b565b828001600101855582156200011b579182015b828111156200011a578251825591602001919060010190620000fd565b5b5090506200012a91906200012e565b5090565b6200015391905b808211156200014f57600081600090555060010162000135565b5090565b90565b611fa780620001666000396000f3fe6080604052600436106100dd5760003560e01c80639d01485f1161007f578063ab05bae611610059578063ab05bae6146108f6578063baa39e05146109de578063c605f76c14610a19578063fdb10f5014610aa9576100dd565b80639d01485f14610570578063a27664ee14610645578063a9f5eb29146106b4576100dd565b806355d61952116100bb57806355d61952146102595780636c5ed9391461043f5780636fa830a61461047a57806390ffded8146104a8576100dd565b806301725a0b146100e25780630d2d5dca1461017257806326e85250146101de575b600080fd5b3480156100ee57600080fd5b506100f7610af1565b6040518080602001828103825283818151815260200191508051906020019080838360005b8381101561013757808201518184015260208101905061011c565b50505050905090810190601f1680156101645780820380516001836020036101000a031916815260200191505b509250505060405180910390f35b34801561017e57600080fd5b50610187610b8f565b6040518080602001828103825283818151815260200191508051906020019060200280838360005b838110156101ca5780820151818401526020810190506101af565b505050509050019250505060405180910390f35b3480156101ea57600080fd5b506102176004803603602081101561020157600080fd5b8101908080359060200190929190505050610c24565b604051808273ffffffffffffffffffffffffffffffffffffffff1673ffffffffffffffffffffffffffffffffffffffff16815260200191505060405180910390f35b34801561026557600080fd5b506102926004803603602081101561027c57600080fd5b8101908080359060200190929190505050610c64565b60405180806020018060200180602001888152602001871515151581526020018673ffffffffffffffffffffffffffffffffffffffff1673ffffffffffffffffffffffffffffffffffffffff1681526020018560038111156102f057fe5b60ff16815260200184810384528b818151815260200191508051906020019080838360005b83811015610330578082015181840152602081019050610315565b50505050905090810190601f16801561035d5780820380516001836020036101000a031916815260200191505b5084810383528a818151815260200191508051906020019080838360005b8381101561039657808201518184015260208101905061037b565b50505050905090810190601f1680156103c35780820380516001836020036101000a031916815260200191505b50848103825289818151815260200191508051906020019080838360005b838110156103fc5780820151818401526020810190506103e1565b50505050905090810190601f1680156104295780820380516001836020036101000a031916815260200191505b509a505050505050505050505060405180910390f35b34801561044b57600080fd5b506104786004803603602081101561046257600080fd5b8101908080359060200190929190505050610f34565b005b6104a66004803603602081101561049057600080fd5b810190808035906020019092919050505061101f565b005b3480156104b457600080fd5b5061056e600480360360208110156104cb57600080fd5b81019080803590602001906401000000008111156104e857600080fd5b8201836020820111156104fa57600080fd5b8035906020019184600183028401116401000000008311171561051c57600080fd5b91908080601f016020809104026020016040519081016040528093929190818152602001838380828437600081840152601f19601f82011690508083019250505050505050919291929050505061134d565b005b34801561057c57600080fd5b506105a96004803603602081101561059357600080fd5b8101908080359060200190929190505050611367565b604051808673ffffffffffffffffffffffffffffffffffffffff1673ffffffffffffffffffffffffffffffffffffffff168152602001858152602001841515151581526020018373ffffffffffffffffffffffffffffffffffffffff1673ffffffffffffffffffffffffffffffffffffffff16815260200182600381111561062d57fe5b60ff1681526020019550505050505060405180910390f35b34801561065157600080fd5b5061069e6004803603604081101561066857600080fd5b8101908080359060200190929190803573ffffffffffffffffffffffffffffffffffffffff169060200190929190505050611452565b6040518082815260200191505060405180910390f35b3480156106c057600080fd5b506108dc600480360360c08110156106d757600080fd5b81019080803590602001906401000000008111156106f457600080fd5b82018360208201111561070657600080fd5b8035906020019184600183028401116401000000008311171561072857600080fd5b91908080601f016020809104026020016040519081016040528093929190818152602001838380828437600081840152601f19601f8201169050808301925050505050505091929192908035906020019064010000000081111561078b57600080fd5b82018360208201111561079d57600080fd5b803590602001918460018302840111640100000000831117156107bf57600080fd5b91908080601f016020809104026020016040519081016040528093929190818152602001838380828437600081840152601f19601f8201169050808301925050505050505091929192908035906020019064010000000081111561082257600080fd5b82018360208201111561083457600080fd5b8035906020019184600183028401116401000000008311171561085657600080fd5b91908080601f016020809104026020016040519081016040528093929190818152602001838380828437600081840152601f19601f82011690508083019250505050505050919291929080359060200190929190803573ffffffffffffffffffffffffffffffffffffffff16906020019092919080359060200190929190505050611521565b604051808215151515815260200191505060405180910390f35b34801561090257600080fd5b506109dc6004803603604081101561091957600080fd5b81019080803573ffffffffffffffffffffffffffffffffffffffff1690602001909291908035906020019064010000000081111561095657600080fd5b82018360208201111561096857600080fd5b8035906020019184600183028401116401000000008311171561098a57600080fd5b91908080601f016020809104026020016040519081016040528093929190818152602001838380828437600081840152601f19601f8201169050808301925050505050505091929192905050506117d0565b005b3480156109ea57600080fd5b50610a1760048036036020811015610a0157600080fd5b81019080803590602001909291905050506118d6565b005b348015610a2557600080fd5b50610a2e611975565b6040518080602001828103825283818151815260200191508051906020019080838360005b83811015610a6e578082015181840152602081019050610a53565b50505050905090810190601f168015610a9b5780820380516001836020036101000a031916815260200191505b509250505060405180910390f35b348015610ab557600080fd5b50610aef60048036036040811015610acc57600080fd5b8101908080359060200190929190803560ff169060200190929190505050611a17565b005b60008054600181600116156101000203166002900480601f016020809104026020016040519081016040528092919081815260200182805460018160011615610100020316600290048015610b875780601f10610b5c57610100808354040283529160200191610b87565b820191906000526020600020905b815481529060010190602001808311610b6a57829003601f168201915b505050505081565b6060600460003373ffffffffffffffffffffffffffffffffffffffff1673ffffffffffffffffffffffffffffffffffffffff168152602001908152602001600020805480602002602001604051908101604052809291908181526020018280548015610c1a57602002820191906000526020600020905b815481526020019060010190808311610c06575b5050505050905090565b60006001600083815260200190815260200160002060060160019054906101000a900473ffffffffffffffffffffffffffffffffffffffff169050919050565b606080606060008060008060016000898152602001908152602001600020600001600160008a8152602001908152602001600020600101600160008b8152602001908152602001600020600201600160008c815260200190815260200160002060030154600160008d815260200190815260200160002060060160009054906101000a900460ff16600160008e815260200190815260200160002060060160019054906101000a900473ffffffffffffffffffffffffffffffffffffffff16600160008f815260200190815260200160002060060160159054906101000a900460ff16868054600181600116156101000203166002900480601f016020809104026020016040519081016040528092919081815260200182805460018160011615610100020316600290048015610ddc5780601f10610db157610100808354040283529160200191610ddc565b820191906000526020600020905b815481529060010190602001808311610dbf57829003601f168201915b50505050509650858054600181600116156101000203166002900480601f016020809104026020016040519081016040528092919081815260200182805460018160011615610100020316600290048015610e785780601f10610e4d57610100808354040283529160200191610e78565b820191906000526020600020905b815481529060010190602001808311610e5b57829003601f168201915b50505050509550848054600181600116156101000203166002900480601f016020809104026020016040519081016040528092919081815260200182805460018160011615610100020316600290048015610f145780601f10610ee957610100808354040283529160200191610f14565b820191906000526020600020905b815481529060010190602001808311610ef757829003601f168201915b505050505094509650965096509650965096509650919395979092949650565b6001600082815260200190815260200160002060060160009054906101000a900460ff16610f6157600080fd5b336001600083815260200190815260200160002060060160016101000a81548173ffffffffffffffffffffffffffffffffffffffff021916908373ffffffffffffffffffffffffffffffffffffffff16021790555060006001600083815260200190815260200160002060060160006101000a81548160ff021916908315150217905550600180600083815260200190815260200160002060060160156101000a81548160ff0219169083600381111561101757fe5b021790555050565b60038081111561102b57fe5b6001600083815260200190815260200160002060060160159054906101000a900460ff16600381111561105a57fe5b1461106457600080fd5b600a60016000838152602001908152602001600020600501548161108457fe5b04600160008381526020019081526020016000206005015401341015611112576040517f08c379a000000000000000000000000000000000000000000000000000000000815260040180806020018281038252601c8152602001807f54686520616d6f756e74206973206e6f742073756666696369656e740000000081525060200191505060405180910390fd5b6001600082815260200190815260200160002060040160009054906101000a900473ffffffffffffffffffffffffffffffffffffffff1673ffffffffffffffffffffffffffffffffffffffff166108fc349081150290604051600060405180830381858888f1935050505015801561118e573d6000803e3d6000fd5b506111cf6001600083815260200190815260200160002060040160009054906101000a900473ffffffffffffffffffffffffffffffffffffffff1682611b6e565b336001600083815260200190815260200160002060040160006101000a81548173ffffffffffffffffffffffffffffffffffffffff021916908373ffffffffffffffffffffffffffffffffffffffff16021790555060006001600083815260200190815260200160002060060160006101000a81548160ff02191690831515021790555060006001600083815260200190815260200160002060060160016101000a81548173ffffffffffffffffffffffffffffffffffffffff021916908373ffffffffffffffffffffffffffffffffffffffff16021790555060006001600083815260200190815260200160002060060160156101000a81548160ff021916908360038111156112dc57fe5b0217905550600460003373ffffffffffffffffffffffffffffffffffffffff1673ffffffffffffffffffffffffffffffffffffffff16815260200190815260200160002081908060018154018082558091505090600182039060005260206000200160009091929091909150555050565b8060009080519060200190611363929190611ea1565b5050565b60008060008060006001600087815260200190815260200160002060040160009054906101000a900473ffffffffffffffffffffffffffffffffffffffff1660016000888152602001908152602001600020600501546001600089815260200190815260200160002060060160009054906101000a900460ff16600160008a815260200190815260200160002060060160019054906101000a900473ffffffffffffffffffffffffffffffffffffffff16600160008b815260200190815260200160002060060160159054906101000a900460ff168494509450945094509450945091939590929450565b600080600090505b600460008473ffffffffffffffffffffffffffffffffffffffff1673ffffffffffffffffffffffffffffffffffffffff168152602001908152602001600020805490508110156115165783600460008573ffffffffffffffffffffffffffffffffffffffff1673ffffffffffffffffffffffffffffffffffffffff16815260200190815260200160002082815481106114ef57fe5b90600052602060002001541415611509578091505061151b565b808060010191505061145a565b809150505b92915050565b60003373ffffffffffffffffffffffffffffffffffffffff166003866040518082805190602001908083835b60208310611570578051825260208201915060208101905060208303925061154d565b6001836020036101000a038019825116818451168082178552505050505050905001915050908152602001604051809103902060009054906101000a900473ffffffffffffffffffffffffffffffffffffffff1673ffffffffffffffffffffffffffffffffffffffff16148061163357503373ffffffffffffffffffffffffffffffffffffffff16600260009054906101000a900473ffffffffffffffffffffffffffffffffffffffff1673ffffffffffffffffffffffffffffffffffffffff16145b61163c57600080fd5b600061164a88888888611d63565b905087600160008381526020019081526020016000206000019080519060200190611676929190611ea1565b50866001600083815260200190815260200160002060010190805190602001906116a1929190611ea1565b50856001600083815260200190815260200160002060020190805190602001906116cc929190611ea1565b50846001600083815260200190815260200160002060030181905550836001600083815260200190815260200160002060040160006101000a81548173ffffffffffffffffffffffffffffffffffffffff021916908373ffffffffffffffffffffffffffffffffffffffff160217905550826001600083815260200190815260200160002060050181905550600460008573ffffffffffffffffffffffffffffffffffffffff1673ffffffffffffffffffffffffffffffffffffffff16815260200190815260200160002081908060018154018082558091505090600182039060005260206000200160009091929091909150555060019150509695505050505050565b600260009054906101000a900473ffffffffffffffffffffffffffffffffffffffff1673ffffffffffffffffffffffffffffffffffffffff163373ffffffffffffffffffffffffffffffffffffffff161461182a57600080fd5b816003826040518082805190602001908083835b60208310611861578051825260208201915060208101905060208303925061183e565b6001836020036101000a038019825116818451168082178552505050505050905001915050908152602001604051809103902060006101000a81548173ffffffffffffffffffffffffffffffffffffffff021916908373ffffffffffffffffffffffffffffffffffffffff1602179055505050565b3373ffffffffffffffffffffffffffffffffffffffff166001600083815260200190815260200160002060040160009054906101000a900473ffffffffffffffffffffffffffffffffffffffff1673ffffffffffffffffffffffffffffffffffffffff161461194457600080fd5b600180600083815260200190815260200160002060060160006101000a81548160ff02191690831515021790555050565b606060008054600181600116156101000203166002900480601f016020809104026020016040519081016040528092919081815260200182805460018160011615610100020316600290048015611a0d5780601f106119e257610100808354040283529160200191611a0d565b820191906000526020600020905b8154815290600101906020018083116119f057829003601f168201915b5050505050905090565b3373ffffffffffffffffffffffffffffffffffffffff166001600084815260200190815260200160002060040160009054906101000a900473ffffffffffffffffffffffffffffffffffffffff1673ffffffffffffffffffffffffffffffffffffffff1614611a8557600080fd5b806001600084815260200190815260200160002060060160156101000a81548160ff02191690836003811115611ab757fe5b021790555060026003811115611ac957fe5b816003811115611ad557fe5b1415611b6a5760006001600084815260200190815260200160002060060160016101000a81548173ffffffffffffffffffffffffffffffffffffffff021916908373ffffffffffffffffffffffffffffffffffffffff16021790555060006001600084815260200190815260200160002060060160156101000a81548160ff02191690836003811115611b6457fe5b02179055505b5050565b6000611b7a8284611452565b9050600460008473ffffffffffffffffffffffffffffffffffffffff1673ffffffffffffffffffffffffffffffffffffffff1681526020019081526020016000206001600460008673ffffffffffffffffffffffffffffffffffffffff1673ffffffffffffffffffffffffffffffffffffffff168152602001908152602001600020805490500381548110611c0b57fe5b9060005260206000200154600460008573ffffffffffffffffffffffffffffffffffffffff1673ffffffffffffffffffffffffffffffffffffffff1681526020019081526020016000208281548110611c6057fe5b9060005260206000200181905550600460008473ffffffffffffffffffffffffffffffffffffffff1673ffffffffffffffffffffffffffffffffffffffff1681526020019081526020016000206001600460008673ffffffffffffffffffffffffffffffffffffffff1673ffffffffffffffffffffffffffffffffffffffff168152602001908152602001600020805490500381548110611cfd57fe5b9060005260206000200160009055600460008473ffffffffffffffffffffffffffffffffffffffff1673ffffffffffffffffffffffffffffffffffffffff168152602001908152602001600020805480919060019003611d5d9190611f21565b50505050565b60006509184e72a000858585856040516020018085805190602001908083835b60208310611da65780518252602082019150602081019050602083039250611d83565b6001836020036101000a03801982511681845116808217855250505050505090500184805190602001908083835b60208310611df75780518252602082019150602081019050602083039250611dd4565b6001836020036101000a03801982511681845116808217855250505050505090500183805190602001908083835b60208310611e485780518252602082019150602081019050602083039250611e25565b6001836020036101000a0380198251168184511680821785525050505050509050018281526020019450505050506040516020818303038152906040528051906020012060001c81611e9657fe5b069050949350505050565b828054600181600116156101000203166002900490600052602060002090601f016020900481019282601f10611ee257805160ff1916838001178555611f10565b82800160010185558215611f10579182015b82811115611f0f578251825591602001919060010190611ef4565b5b509050611f1d9190611f4d565b5090565b815481835581811115611f4857818360005260206000209182019101611f479190611f4d565b5b505050565b611f6f91905b80821115611f6b576000816000905550600101611f53565b5090565b9056fea265627a7a723158209c4ee0774f9155c051f031fff44bae70b9cedd14da1befa7263982898dbdebb264736f6c63430005100032",
  "source": "pragma solidity >=0.4.0 <0.6.0;\r\n\r\n\r\ncontract LandRegistration{\r\n    \r\n    string public demo = \"hello world!\";\r\n    function helloWorld() public view returns(string memory) {\r\n        return demo;\r\n    }\r\n    function setHelloWorld(string memory _demo) public {\r\n        demo = _demo;\r\n    }\r\n    //Land data structure\r\n    struct landDetails{\r\n        string state;\r\n        string district;\r\n        string village;\r\n        uint256 surveyNumber;\r\n        address payable CurrentOwner;\r\n        uint marketValue;\r\n        bool isAvailable;\r\n        address requester;\r\n        reqStatus requestStatus;\r\n    }\r\n    \r\n\r\n    //request status\r\n    enum reqStatus {Default,pending,reject,approved}\r\n \r\n    mapping(uint => landDetails) land;\r\n    address owner;\r\n    mapping(string => address) superAdmin;\r\n    mapping(address => uint[]) assetList;\r\n    \r\n    //setting the owner of the contract\r\n    constructor() public{\r\n        owner = msg.sender;\r\n    }\r\n    \r\n    //modifier to be used for owner only actions\r\n    modifier onlyOwner {\r\n        require(msg.sender == owner);\r\n        _;\r\n    }\r\n    \r\n    //adding village admins who are responsible to register land in the corresponding village\r\n    function addSuperAdmin(address _superAdmin,string memory _village ) onlyOwner public {\r\n        superAdmin[_village]=_superAdmin;\r\n    }\r\n    \r\n    //Registration of land details.\r\n    function Registration(string memory _state,string memory _district,\r\n        string memory _village,uint256 _surveyNumber,\r\n        address payable _OwnerAddress,uint _marketValue) public returns(bool) {\r\n        require(superAdmin[_village] == msg.sender || owner == msg.sender); //only owner of the contract or admin of the village\r\n        \r\n        uint id = computeId(_state, _district, _village, _surveyNumber);\r\n        land[id].state = _state;\r\n        land[id].district = _district;\r\n        land[id].village = _village;\r\n        land[id].surveyNumber = _surveyNumber;\r\n        land[id].CurrentOwner = _OwnerAddress;\r\n        land[id].marketValue = _marketValue;\r\n        assetList[_OwnerAddress].push(id);\r\n        return true;\r\n    }\r\n    \r\n    //to view details of land by the owner\r\n    function landInfoOwner(uint id) public view returns(string memory,string memory,string memory,uint256,bool,address,reqStatus){\r\n        return(land[id].state,land[id].district,land[id].village,land[id].surveyNumber,land[id].isAvailable,land[id].requester,land[id].requestStatus);\r\n    }\r\n    \r\n    //to view details of land for the buyer\r\n    function landInfoUser(uint id) public view returns(address,uint,bool,address,reqStatus){\r\n        return(land[id].CurrentOwner,land[id].marketValue,land[id].isAvailable,land[id].requester,land[id].requestStatus);\r\n    }\r\n    \r\n    // to compute unique id for a land.\r\n    function computeId(string memory _state,string memory _district,string memory _village,uint _surveyNumber)pure private returns(uint){\r\n        return uint(keccak256(abi.encodePacked(_state,_district,_village,_surveyNumber)))%10000000000000;\r\n    }\r\n    \r\n    //making land available for sale\r\n    function makeAvailable(uint property)public{\r\n        require(land[property].CurrentOwner == msg.sender);\r\n        \r\n        land[property].isAvailable = true;\r\n    }\r\n    \r\n    //push a request to the land owner\r\n    function requstToLandOwner(uint id) public {\r\n        require(land[id].isAvailable); //only possible to request land when it is available\r\n        \r\n        land[id].requester = msg.sender;\r\n        land[id].isAvailable = false;\r\n        land[id].requestStatus = reqStatus.pending; //changes the status to pending.\r\n    }\r\n    \r\n    //To show assets of the function caller \r\n    function viewAssets()public view returns(uint[] memory){\r\n        return (assetList[msg.sender]);\r\n    }\r\n    \r\n    //viewing request for the lands\r\n    function viewRequest(uint property)public view returns(address){\r\n        return(land[property].requester);\r\n    }\r\n    \r\n    //processing request for the land by accepting or rejecting\r\n    function processRequest(uint property,reqStatus status)public {\r\n        require(land[property].CurrentOwner == msg.sender); //to ensure the correct owner of the land\r\n        \r\n        land[property].requestStatus = status;\r\n        if(status == reqStatus.reject){\r\n            land[property].requester = address(0); //Default address\r\n            land[property].requestStatus = reqStatus.Default;\r\n        }\r\n    }\r\n    \r\n    \r\n    //buying the approved property\r\n    function buyProperty(uint property)public payable{\r\n        require(land[property].requestStatus == reqStatus.approved);\r\n        require(msg.value >= (land[property].marketValue + ((land[property].marketValue) / 10)), \"The amount is not sufficient\");\r\n        \r\n        land[property].CurrentOwner.transfer(msg.value); //transfering ether to the owner\r\n        removeOwnership(land[property].CurrentOwner,property);  \r\n        land[property].CurrentOwner=msg.sender; //transfering ownership\r\n        land[property].isAvailable=false;\r\n        land[property].requester = address(0);\r\n        land[property].requestStatus = reqStatus.Default;\r\n        assetList[msg.sender].push(property); //adds the property to the asset list of the new owner.\r\n        \r\n    }\r\n    \r\n    //removing the ownership of seller for the land...Called by the buyProperty function\r\n    function removeOwnership(address previousOwner,uint id)private{\r\n        uint index = findId(id,previousOwner);\r\n        assetList[previousOwner][index] = assetList[previousOwner][assetList[previousOwner].length - 1];\r\n        delete assetList[previousOwner][assetList[previousOwner].length - 1];\r\n        assetList[previousOwner].length--;\r\n    }\r\n    \r\n    //for finding the index of a perticular id\r\n    function findId(uint id,address user)public view returns(uint){\r\n        uint i;\r\n        for(i = 0; i < assetList[user].length; i++){\r\n            if(assetList[user][i] == id)\r\n                return i;\r\n        }\r\n        return i;\r\n    }\r\n    \r\n}",
  "sourcePath": "C:/Users/Rishi/Documents/SEM 6/Project/Land_Registration/LandReg truffle/contracts/LandRegistration.sol",
  "compiler": {
    "name": "solc",
    "version": "0.5.16+commit.9c3226ce.Emscripten.clang"
  },
  "schemaVersion": "3.4.1",
  "updatedAt": "2021-05-14T10:38:28.247Z",
  "networkType": "ethereum",
  "devdoc": {
    "methods": {}
  },
  "userdoc": {
    "methods": {}
  }
}